:100000000C9474050C949C050C949C050C949C0514
:100010000C949C050C949C050C949C050C949817CE
:100020000C949C050C949C050C949C050C949C05CC
:100030000C949C050C949C050C949C050C949C05BC
:100040000C944C180C949C050C941A180C94F417EE
:100050000C949C050C949C050C949C050C949C059C
:100060000C9496180C949C0508000000BE9224493C
:10007000123EABAAAA2ABECDCCCC4C3E00000080DA
:10008000BEABAAAAAA3E00000000BF000000803F4D
:100090000000000000084178D3BB4387D1133D190D
:1000A0000E3CC3BD4282AD2B3E68EC8276BED98F3A
:1000B000E1A93E4C80EFFFBE01C4FF7F3F0000007E
:1000C0000000000103070F1F3F7F0080C0E0F0F831
:1000D000FCFE00000000003E5B4F5B3E3E6B4F6B42
:1000E0003E1C3E7C3E1C183C7E3C181C577D571C19
:1000F0001C5E7F5E1C00183C1800FFE7C3E7FF0092
:1001000018241800FFE7DBE7FF30483A060E2629DF
:10011000792926407F050507407F05253F5A3CE7A2
:100120003C5A7F3E1C1C08081C1C3E7F14227F2268
:10013000145F5F005F5F06097F017F006689956A33
:10014000606060606094A2FFA29408047E040810BE
:10015000207E201008082A1C08081C2A08081E10E7
:100160001010100C1E0C1E0C30383E3830060E3E9F
:100170000E06000000000000005F000000070007FE
:1001800000147F147F14242A7F2A12231308646228
:1001900036495620500008070300001C2241000089
:1001A00041221C002A1C7F1C2A08083E08080080E7
:1001B000703000080808080800006060002010087F
:1001C00004023E5149453E00427F40007249494980
:1001D000462141494D331814127F102745454539B2
:1001E0003C4A4949314121110907364949493646B6
:1001F0004949291E00001400000040340000000896
:100200001422411414141414004122140802015938
:1002100009063E415D594E7C1211127C7F494949C5
:10022000363E414141227F4141413E7F494949415A
:100230007F090909013E414151737F0808087F0089
:10024000417F41002040413F017F081422417F400F
:100250004040407F021C027F7F0408107F3E4141E6
:10026000413E7F090909063E4151215E7F09192956
:1002700046264949493203017F01033F4040403F40
:100280001F2040201F3F4038403F63140814630381
:10029000047804036159494D43007F414141020400
:1002A000081020004141417F040201020440404007
:1002B0004040000307080020545478407F284444FD
:1002C000383844444428384444287F385454541817
:1002D00000087E090218A4A49C787F080404780012
:1002E000447D40002040403D007F102844000041F4
:1002F0007F40007C047804787C0804047838444407
:100300004438FC1824241818242418FC7C080404FD
:1003100008485454542404043F44243C4040207C66
:100320001C2040201C3C4030403C44281028444CB9
:100330009090907C4464544C440008364100000086
:10034000770000004136080002010204023C262327
:10035000263C1EA1A161123A4040207A38545455DF
:1003600059215555794122545478422155547840A9
:1003700020545579400C1E52721239555555593931
:100380005454545939555454580000457C41000286
:10039000457D420001457C407D1211127DF02825EB
:1003A00028F07C545545002054547C547C0A097F25
:1003B0004932494949323A4444443A324A48483039
:1003C0003A4141217A3A42402078009DA0A07D3DEB
:1003D0004242423D3D4040403D3C24FF2424487E73
:1003E0004943662B2FFC2F2BFF0929F620C0887E5E
:1003F000090320545479410000447D413048484A63
:1004000032384040227A007A0A0A727D0D19317D15
:100410002629292F28262929292630484D402038E9
:100420000808080808080808382F10C8ACBA2F10A8
:100430002834FA00007B000008142A142222142A0F
:1004400014085500550055AA55AA55AAFF55FF5541
:10045000FF000000FF00101010FF00141414FF0034
:100460001010FF00FF1010F010F0141414FC001412
:1004700014F700FF0000FF00FF1414F404FC141430
:1004800017101F10101F101F1414141F001010102D
:10049000F0000000001F101010101F10101010F0BE
:1004A00010000000FF101010101010101010FF109E
:1004B000000000FF140000FF00FF00001F101700E5
:1004C00000FC04F414141710171414F404F40000BE
:1004D000FF00F714141414141414F700F714141470
:1004E000171410101F101F141414F4141010F0100F
:1004F000F000001F101F0000001F14000000FC147B
:100500000000F010F01010FF10FF141414FF14106E
:1005100010101F00000000F010FFFFFFFFFFF0F0C1
:10052000F0F0F0FFFFFF0000000000FFFF0F0F0FD3
:100530000F0F3844443844FC4A4A4A347E020206CB
:1005400006027E027E0263554941633844443C04FE
:10055000407E201E2006027E020299A5E7A5991C76
:100560002A492A1C4C7201724C304A4D4D30304899
:10057000784830BC625A463D3E494949007E0101F7
:10058000017E2A2A2A2A2A44445F444440514A448C
:100590004040444A51400000FF0103E080FF00005A
:1005A00008086B6B083612362436060F090F060052
:1005B0000018180000001010003040FF0101001F5B
:1005C00001011E00191D1712003C3C3C3C000000BC
:1005D00000000000000023002600290000000008A1
:1005E00000020100000304070000000000000000FA
:1005F0000200000000240027002A00DB40A4A62EF1
:10060000AF2000A1C8D300408DAED580A801020460
:100610000810204080010204081020010204081084
:100620002000000000250028002B0004040404041E
:100630000404040202020202020303030303030090
:10064000006000000000000000000000000000004A
:10065000E00000000000000000000000000001E0D9
:100660000000000000000000000000000001F00099
:1006700000000000000000000000000003F0000087
:10068000000000000000000000000007F000000073
:100690000000000000000000000007F8000000005B
:1006A0000000000000000000000FF800000003C080
:1006B000007E000001E0007F0FF800000003C00092
:1006C000FE000001E000FFEFF800000003C000FEA4
:1006D000000001E000FFFFF800000003C000F00090
:1006E00000000F007FFE7FC0000003C000F000008C
:1006F000000F003FFE7FF83FF1FBCFFCFEF3BC3D57
:10070000EFE01FFE7FFF7FFBFFDFFEFEFFBC3DEF44
:10071000E01FC6FFFF7FFBFFDFFEFEFFBC3DEFE0FB
:100720000FE3C7FE787BC3DE1EF0FFBC3DEF000782
:10073000FF87FC787BC3DE1EF0F83C3DEF0001FF35
:10074000FFF0007BC3C01EF0F03C3DEF0001F37FE3
:10075000E03FFBC3CFFEF0F03C3DEF0003E33F8002
:100760007FFBC3DFFEF0F03C3DEF0007E73C007885
:100770007BC3DE1EF0F03C3DEF0007FFBE00787B40
:10078000C3DE1EF0F03C3DEF0007FFFE00787BC3A8
:10079000DE1EF0F03C3DEF000FFFFE007FFBFFDFB1
:1007A000FEF0F03FFDEFE00FFFFF007FFBFFDFFEFD
:1007B000F0F03FFDEFE00FF9FF003E79F9CF9EF03A
:1007C000F01F3DE7E01FF1FF000000000000000007
:1007D000000000001F80FF007FFFFFFFFFFFFFFF03
:1007E000FFFFE01C007F007FFFFFFFFEB46D888DE0
:1007F00018E000001F007FFFFFFFFE95AD7DB5777D
:10080000E000000F007FFFFFFFFEA5AD9D8D19E00A
:10081000000006007FFFFFFFFEB5ADEDB57EE000F6
:100820000000000001800000000000000000000344
:100830008000000000000000000007C00000000071
:10084000000000000007C0000000000000000000E1
:100850000FC00000000000000000001FE0000000CA
:100860000000000000001FE0000000000000000089
:10087000003FE00000000000000000003FF000002A
:10088000000000000000007FF000000000000000F9
:100890001FF87FF0000000000000003FFE7FF00026
:1008A0000000000000003FFF7FF00000000000009B
:1008B000001FFFFBE0000000000000000FFFF9FF39
:1008C000C00000000000000FFFF9FFF8000000006A
:1008D000000007FFF1FFFF00000000000003FC73B1
:1008E000FFFF80000000000001FE3FFFFF800000CE
:1008F00000000000FF1E0FFF000000000000007F4E
:10090000FE1FFC000000000000003FFFFFF8000099
:1009100000000000000FDFFFE0000000000000000A
:100920001F19FFC0000000000000003F3CFF000056
:100930000000000000007E7CF800000000000000C5
:10094000007FFE7C0000000000000000FFFFFC00B4
:1009500000000000000000FFFFFE0000000000009B
:100960000000FFFFFE0000000000000001FFEFFE9E
:100970000000000000000001FFCFFE0000000000AA
:10098000000003FF07FE0000000000000003FC075A
:10099000FE0000000000000003F003FE0000000065
:1009A000000000018000FE000000000000000000C8
:1009B000007E000000000000000000003E0000007B
:1009C000000000000000000C000000000000078094
:1009D00000FC000003C0000000078001FC000003D1
:1009E000C0000000078001FC000003C000000007F9
:1009F0008001E00000001E000000078001E0000010
:100A0000001E007FE3F79FF9FDE7787BDFC0FFF76B
:100A1000FFBFFDFDFF787BDFC0FFF7FFBFFDFDFFE0
:100A2000787BDFC0F0F787BC3DE1FF787BDE00F02C
:100A3000F787BC3DE1F0787BDE0000F787803DE181
:100A4000E0787BDE007FF7879FFDE1E0787BDE00CA
:100A5000FFF787BFFDE1E0787BDE00F0F787BC3D64
:100A6000E1E0787BDE00F0F787BC3DE1E0787BDEFB
:100A700000F0F787BC3DE1E0787BDE00FFF7FFBFC9
:100A8000FDE1E07FFBDFC0FFF7FFBFFDE1E07FFBA3
:100A9000DFC07CF3F39F3DE1E03E7BCFC000000070
:100AA0000000000000000000FFFFFFFFFFFFFFFF4E
:100AB000FFFFC0FFFFFFFFFD68DB111A31C0FFFF22
:100AC000FFFFFD2B5AFB6AEFC0FFFFFFFFFD4B5BF3
:100AD0003B1A33C0FFFFFFFFFD6B5BDB6AFDC022EB
:100AE00000FF2100B519461F11241FBECFEFD8E02B
:100AF000DEBFCDBF11E0A0E0B1E0E6E0F7E402C068
:100B000005900D92A03CB107D9F723E0A0ECB1E02D
:100B100001C01D92AB39B207E1F715E0C3E7D5E09C
:100B200004C02197FE010E943F22C237D107C9F7B6
:100B30000E94381A0C9476230C94000008950895AE
:100B40000895AF92BF92CF92DF92EF92FF920F93F0
:100B50001F93CF93DF936C017B018B01040F151F53
:100B6000EB015E01AE18BF08C017D10759F06991BB
:100B7000D601ED91FC910190F081E02DC60109951F
:100B8000892B79F7C501DF91CF911F910F91FF90CC
:100B9000EF90DF90CF90BF90AF900895FC01538D00
:100BA000448D252F30E0842F90E0821B930B541747
:100BB00010F0CF96089501970895FC01918D828DD4
:100BC000981761F0A28DAE0FBF2FB11D5D968C916D
:100BD000928D9F5F9F73928F90E008958FEF9FEFAC
:100BE0000895FC01918D828D981731F0828DE80F68
:100BF000F11D858D90E008958FEF9FEF0895FC0122
:100C0000918D228D892F90E0805C9F4F821B9109EE
:100C10008F73992708958EEA92E00E94FF0521E0E4
:100C2000892B09F420E0822F089580E090E0892B41
:100C300029F00E940B0681110C9400000895FC011C
:100C4000A48DA80FB92FB11DA35ABF4F2C91848D2D
:100C500090E001968F739927848FA689B7892C938A
:100C6000A089B1898C91837080648C93938D848DDD
:100C7000981306C00288F389E02D80818F7D8083E0
:100C80000895EF92FF920F931F93CF93DF93EC01A0
:100C900081E0888F9B8D8C8D98131AC0E889F98923
:100CA000808185FF15C09FB7F894EE89FF89608326
:100CB000E889F98980818370806480839FBF81E0A7
:100CC00090E0DF91CF911F910F91FF90EF900895E9
:100CD000F62E0B8D10E00F5F1F4F0F731127E02EC4
:100CE0008C8D8E110CC00FB607FCFACFE889F989FC
:100CF000808185FFF5CFCE010E941F06F1CFEB8DDD
:100D0000EC0FFD2FF11DE35AFF4FF0829FB7F894CF
:100D10000B8FEA89FB8980818062CFCFCF93DF93ED
:100D2000EC01888D8823B9F0AA89BB89E889F98903
:100D30008C9185FD03C0808186FD0DC00FB607FC38
:100D4000F7CF8C9185FFF2CF808185FFEDCFCE016B
:100D50000E941F06E9CFDF91CF910895833081F083
:100D600028F4813099F08230A9F008958730A9F0F5
:100D70008830C9F08430B1F4809180008F7D03C049
:100D8000809180008F7780938000089584B58F775D
:100D900084BD089584B58F7DFBCF8091B0008F779F
:100DA0008093B00008958091B0008F7DF9CFCF93EC
:100DB000DF93282F30E0F901E452FA4F8491F901D2
:100DC000E35FF94FD491F901E55DF94FC491CC236C
:100DD000A1F081110E94AE06EC2FF0E0EE0FFF1F94
:100DE000EE52FA4FA591B491EC91ED2381E090E0A1
:100DF00009F480E0DF91CF91089580E090E0FACF90
:100E00001F93CF93DF93282F30E0F901E452FA4F7C
:100E10008491F901E35FF94FD491F901E55DF94F50
:100E2000C491CC23A9F0162F81110E94AE06EC2F9D
:100E3000F0E0EE0FFF1FEF5DF94FA591B4918FB772
:100E4000F894EC91111108C0D095DE23DC938FBF8C
:100E5000DF91CF911F910895DE2BF8CF9091000183
:100E600089130BC0E0EFF5E0E4919FEF9093000150
:100E7000E13049F028F0E23061F060E00C940007C6
:100E800010926E00FACF90916F009D7F90936F004B
:100E9000F4CF909170009D7F9093700091E09093BB
:100EA000B0009091B100987F94609093B10010923F
:100EB000B300E3CFCF93DF9390E0FC01E35FF94F02
:100EC0002491855D994FFC0184918823D1F090E0B5
:100ED000880F991FFC01EF50FA4FA591B491FC01C6
:100EE000EF5DF94FC591D49161110EC09FB7F89491
:100EF0008C91E22FE0958E238C932881E223E88366
:100F00009FBFDF91CF9108958FB7F894EC91E22BBA
:100F1000EC938FBFF6CF3FB7F89480917F0290910A
:100F20008002A0918102B091820226B5A89B05C0E3
:100F30002F3F19F00196A11DB11D3FBFBA2FA92F58
:100F4000982F8827BC01CD01620F711D811D911D55
:100F500042E0660F771F881F991F4A95D1F70895C1
:100F60008F929F92AF92BF92CF92DF92EF92FF92B9
:100F70004B015C010E948B076B017C010E948B0777
:100F80006C197D098E099F09683E734081059105A2
:100F9000A8F321E0821A9108A108B10888EEC80ED2
:100FA00083E0D81EE11CF11C81149104A104B1045A
:100FB00029F7FF90EF90DF90CF90BF90AF909F9078
:100FC0008F90089520913002260F3327331F21324E
:100FD0003105ECF420915402FC0190E080E02430D3
:100FE00069F082E00895A09130022191AC01405F48
:100FF0005D4FA40FB52FB11D2C930196861798F362
:1010000080913002680F6093300280E0089581E0A3
:1010100008951092540281E0809356021092550276
:1010200061E082E10E94000761E083E10E94000725
:10103000E9EBF0E080818E7F808380818D7F8083EB
:1010400088E48093B80085E48093BC000895CF9332
:10105000DF9391E090930F028823B9F0C091B8001C
:10106000D091BA008091BC008A7B8093BC0060E084
:1010700082E10E94000760E083E10E9400070E9475
:101080000908D093BA00C093B800DF91CF910895BA
:10109000E091900280918F02E81730F4F0E0E65181
:1010A000FE4F808190E008958FEF9FEF089590911B
:1010B000900280918F022FEF3FEF981748F4E92FAD
:1010C000F0E0E651FE4F208130E09F5F9093900268
:1010D000C901089580918F0290919002891B990B0C
:1010E0000895CF92DF92EF92FF920F931F93CF93C9
:1010F000DF937C01CB018A012091AD02222389F08C
:10110000EB016B01C40ED51ECC15DD0569F06991AC
:10111000D701ED91FC910190F081E02DC701099577
:10112000F3CF642F0E94E207C801DF91CF911F9196
:101130000F91FF90EF90DF90CF900895CF93DF93C2
:101140001F92CDB7DEB769832091AD022223F9F05B
:101150002091AA02203258F021E030E0FC013383D4
:10116000228390E080E00F90DF91CF9108958091ED
:10117000AB02E82FF0E0E653FE4F998190838F5F3A
:101180008093AB028093AA0281E090E0ECCF61E013
:10119000CE0101960E94E207F7CFCF92DF92EF9245
:1011A000FF920F931F93CF93DF93D091AA0281E018
:1011B000D13208F09CC0C091AC020E948B076B0139
:1011C0007C018091540281116CC082E080935402B2
:1011D00081E0809356028FEF809353021092780241
:1011E000D0937702AAECB1E0E7E5F2E080E0D81313
:1011F0008DC01092790280917902CC0FC82BC093D8
:10120000790280915502813009F084C01092550214
:101210000E948B076B017C01809179028093BB0057
:1012200080910B0290910C02A0910D02B0910E02E0
:10123000892B8A2B8B2BA1F00E948B0700910B022C
:1012400010910C0220910D0230910E026C197D0953
:101250008E099F09061717072807390708F442C0A7
:101260008091BC0083FDD8CF85EC8093BC000E94A8
:101270008B076B017C0180915402823009F44CC0D1
:10128000809153028F3F09F469C0809153028032EC
:1012900009F466C080915302803309F463C084E08E
:1012A00026C080910B0290910C02A0910D02B0918A
:1012B0000E02892B8A2B8B2B09F483CF0E948B077C
:1012C00000910B0210910C0220910D0230910E0240
:1012D0006C197D098E099F0906171707280739071A
:1012E00008F06FCF80910A020E94270885E01092D3
:1012F000AB021092AA021092AD02DF91CF911F9122
:101300000F91FF90EF90DF90CF9008959D91919372
:101310008F5F6DCF85EEA9CF80910B0290910C026B
:10132000A0910D02B0910E02892B8A2B8B2B09F410
:10133000A2CF0E948B0700910B0210910C0220910A
:101340000D0230910E026C197D098E099F09061756
:1013500017072807390708F08ECFC4CF80E0C7CF22
:1013600082E0C5CF83E0C3CF0895FC016370668B34
:101370008481958126813781613039F0633029F08D
:1013800091878087338722870895318720879387C5
:10139000828708952F923F924F925F926F927F9231
:1013A0008F929F92AF92BF92CF92DF92EF92FF9275
:1013B0000F931F93CF93DF93CDB7DEB76A970FB626
:1013C000F894DEBF0FBECDBF9A8F898F7A83698371
:1013D0004A01D22E18870F833701BC2CDC015996A5
:1013E0002D913C915A972115310509F015C1189698
:1013F0008D919C911997681779070CF0D7C11A96AF
:101400008D919C91481759070CF0D0C14C2C512C50
:10141000B6E0CB9E600D711D11247C876B8716167C
:1014200017060CF0C3C1EA2DF0E0FA87E98793E0D4
:10143000EE0FFF1F9A95E1F7F88BEF87CF01840F2E
:10144000951F181619060CF0B1C1A98DBA8D5896C2
:101450008C91811104C0BFEABD1508F4D394A98D05
:10146000BA8DED91FC9111970284F385E02DCD01A9
:101470000995B5E0DB9EC0011124E981FA81FC8366
:10148000EB83312C212C9C012E523F4F388F2F8B18
:101490004A2D50E05E8B4D8BEF89F88DE20DF31DE8
:1014A00044919E828D82D12CC12C69817A81620DFA
:1014B000731D7A8B698B842F90E09C8B8B8BE98DCD
:1014C000FA8DA081B18140FF82C0F1E0BF126FC0F0
:1014D000AF126DC01C96ED91FC912F813885A4014F
:1014E0004C0D5D1D69897A89898D9A8D0995EB89E5
:1014F000FC89F595E7954E2F5FEFC51AD50A6D81EA
:101500007E818D899E89680F791F7E836D8398E027
:10151000C916D10481F6AFEF2A1A3A0AEB81FC8191
:10152000E40DF51DFC83EB83F5E02F16310409F083
:10153000B3CF2F81388526153705B9F0A98DBA8D1F
:10154000ED91FC91B1E0BB1257C0AB1255C069815F
:101550007A816B5F7F4F0088F189E02D830128E05D
:1015600030E0A401898D9A8D0995A98DBA8DED91F0
:10157000FC9111970688F789E02DCD016A960FB688
:10158000F894DEBF0FBECDBFDF91CF911F910F91B9
:10159000FF90EF90DF90CF90BF90AF909F908F9093
:1015A0007F906F905F904F903F902F9009941E9680
:1015B000ED91FC91EF80F88409851A8592014D81A7
:1015C0005E816B817C81898D9A8D099590CF2F8169
:1015D00038852615370509F48ACF31E0B31207C0E4
:1015E000A31205C01C96ED91FC91930178CF1E9635
:1015F000ED91FC917301E0CF6B857C8564197509D1
:101600000684F785E02D73010F8518899201A401E6
:10161000898D9A8D0995A9CFF901349694913297C5
:1016200045915491D91AB7E0DB9E400D511D11240C
:10163000F901259134913C8B2B8BFA012590349044
:10164000FA013296749031963491398B32966490C7
:101650003196449041E04C1518F04A1508F07FC0CF
:10166000662D062C000C770B7C836B83842D042C59
:10167000000C990B9E838D83A98DBA8DED91FC9101
:1016800011970284F385E02DCD010995512CD12CC1
:10169000C12CEA2DF0E0FA87E9872B2D30E03C875A
:1016A0002B87A401440D511D47FC5A95588F4F8B31
:1016B00069817A81660D711D67FC7A957E876D87D9
:1016C0007989C71608F051CF2C2D30E04D815E810D
:1016D000420F531FA985BA854A9FC0014B9F900DA9
:1016E0005A9F900D1124FC01E80DF91DF88BEF872E
:1016F000852D612C4F89588D420F531F5E8B4D8B6A
:10170000671408F050C044244394480E877041F495
:10171000C1010196EB89FC89E20DF31DD4901C01F7
:10172000D7FE19C0A98DBA8DED91FC91662D70E0A0
:10173000B1E0BB1219C0AB1217C02D853E85620FF8
:10174000731F0484F585E02D2F8138854D895E89CE
:10175000898D9A8D0995DD0C6394842DD1CF1E82DD
:101760001D821C821B8288CF4B815C81640F751F98
:10177000AB85BC856A9FC0016B9F900D7A9F900DD1
:10178000112469817A81680F791F0684F785E02D1D
:10179000EF80F88409851A859D014F855889898DC8
:1017A0009A8D0995D8CF570CC3948ACF6A960FB6F5
:1017B000F894DEBF0FBECDBFDF91CF911F910F9187
:1017C000FF90EF90DF90CF90BF90AF909F908F9061
:1017D0007F906F905F904F903F902F9008958F92E1
:1017E0009F92AF92CF92EF92FF920F931F93CF935E
:1017F000DF93EC01262F898D9A8D009709F051C057
:101800006A30D1F41D861C868D8948E0849F900142
:1018100011248E859F85820F931F9F878E8781E07D
:1018200090E0DF91CF911F910F91FF90EF90CF90BB
:10183000AF909F908F9008956D3089F3CC88AD88DC
:101840008F898823C1F08C859D8536E0C39E800DED
:10185000911D1124488559854817590764F44E8510
:101860005F851D861C8638E0A39EC0011124840F6D
:10187000951F9F878E87EA88FB88088919894E857E
:101880005F856C857D85CE010E94CA092C898C8577
:101890009D8546E0249F800D911D11249D878C8796
:1018A000BECF6A3069F41D861C86FC013896E4912F
:1018B0002D898E859F85E29F800D911D1124ADCFCE
:1018C0006D3009F4ACCFFC0134963491631708F401
:1018D000A6CF3296E491E61708F4A1CFFC01329628
:1018E00085909490462F431B342F47E0349F800C03
:1018F000911C1124F401329634913196E4913323F2
:10190000A9F1EE2399F1CC88F4013596E491AD88E4
:101910004F89442301F10E2E000CFF0BE30FF11D44
:10192000CE9EA001CF9E500D11246C857D85460F63
:10193000571F68857985641775076CF44E855F8538
:101940001D861C86FC013896E491AE9E400D511D0B
:1019500011245F874E87EA88FB88088919894E859C
:101960005F856C857D85CE010E94CA09F40134969D
:10197000E4912C898C859D85E29F800D911D112419
:101980008DCF6F927F928F929F92AF92BF92CF92A4
:10199000DF92EF92FF920F931F93CF93DF93EC01AF
:1019A0006B015A0139014801E881F9810284F3850C
:1019B000E02D0995E881F9810288F389E02D8701FE
:1019C0009301A501B601CE010995A501480D591D48
:1019D00041505109E881F9810288F389E02D930192
:1019E000B601CE010995E881F9810088F189E02DE1
:1019F0009401A501B601CE010995C60CD71CB6010C
:101A000061507109E881F9810088F189E02D940124
:101A1000A501CE010995E881F9810688F789E02DB5
:101A2000CE01DF91CF911F910F91FF90EF90DF904A
:101A3000CF90BF90AF909F908F907F906F900994C0
:101A40006F927F928F929F92AF92BF92CF92DF92CE
:101A5000EF92FF920F931F93CF93DF935C01EB0103
:101A60006A01490138018701DC01ED91FC9162179F
:101A7000730719F5641675062CF0962D872D3A011B
:101A8000C92ED82E9601261937092F5F3F4F048C97
:101A9000F58DE02DA301BE01C5010995DF91CF9120
:101AA0001F910F91FF90EF90DF90CF90BF90AF907C
:101AB0009F908F907F906F9008954615570591F4F1
:101AC0002617370724F0892D4B01C22FD82F9E01EE
:101AD000281939092F5F3F4F068CF78DE02DA6019D
:101AE000B401DACF0284F385E02D0995D501ED919B
:101AF000FC910488F589E02D83019401A601BE01C3
:101B0000C5010995D501ED91FC910688F789E02D75
:101B1000C501DF91CF911F910F91FF90EF90DF9062
:101B2000CF90BF90AF909F908F907F906F900994CF
:101B3000EF92FF920F931F93DC011A960D911C9167
:101B40001B9718962D913C911997ED91FC9100A04F
:101B5000F1A1E02D7B0150E040E070E060E00995EC
:101B60001F910F91FF90EF9008954F925F926F92A7
:101B70007F928F929F92AF92BF92CF92DF92EF921D
:101B8000FF920F931F93CF93DF936C012B015A01A8
:101B900039014801DC01ED91FC910284F385E02DCF
:101BA0000995E201640C751CD601ED91FC91C615F6
:101BB000D7055CF40088F189E02D87019401A50127
:101BC000BE01C60109952196EFCF0688F789E02D61
:101BD000C601DF91CF911F910F91FF90EF90DF90A1
:101BE000CF90BF90AF909F908F907F906F905F90BD
:101BF0004F9009948F929F92AF92BF92CF92DF92B3
:101C0000EF92FF920F931F93CF93DF93EC015B0151
:101C10004A016901E881F9810284F385E02D099583
:101C200095012C0D3D1D21503109E881F981048871
:101C3000F589E02D78018401A401B501CE01099553
:101C4000E881F9810688F789E02DCE01DF91CF91F7
:101C50001F910F91FF90EF90DF90CF90BF90AF90CA
:101C60009F908F9009948F929F92AF92BF92CF9244
:101C7000DF92EF92FF920F931F93CF93DF93EC01CC
:101C80005B014A0169017801E881F9810284F385E9
:101C9000E02D0995C80CD91C860101501109E88175
:101CA000F9810488F589E02D9501A401B501CE01E3
:101CB0000995E881F9810688F789E02DCE01DF9149
:101CC000CF911F910F91FF90EF90DF90CF90BF9039
:101CD000AF909F908F900994EF92FF920F931F9374
:101CE000DC01ED91FC9100A0F1A1E02D09951F917F
:101CF0000F91FF90EF9008950F931F93DC01ED91EA
:101D0000FC91068CF78DE02D09951F910F91089598
:101D10000F931F93DC01ED91FC91048CF58DE02D68
:101D200009951F910F910895DC01ED91FC910084BC
:101D3000F185E02D09943F924F925F926F927F92CE
:101D40008F929F92AF92BF92CF92DF92EF92FF92CB
:101D50000F931F93CF93DF935C017B014A016901CD
:101D6000390187E0680E711C93E0759467949A9529
:101D7000E1F72B01400E511E10E000E0312CD0E0C5
:101D8000C0E0CE0187709927330C892B59F4FE01EE
:101D900083E0F595E7958A95E1F7E00FF11FE80DEF
:101DA000F91D349037FE0AC021E030E0A701B501EB
:101DB0006C0F7D1F87E593E00E94940E2196CC1650
:101DC000DD06F9F68FEFE81AF80A060D171DE41480
:101DD000F504A9F6DF91CF911F910F91FF90EF903D
:101DE000DF90CF90BF90AF909F908F907F906F903B
:101DF0005F904F903F9008952F923F924F925F9245
:101E00006F927F928F929F92AF92BF92CF92DF920A
:101E1000EF92FF920F931F93CF93DF9300D000D0E8
:101E200000D0CDB7DEB73C016A013E832D83FC8232
:101E3000EB825801A41AB50AB7FE03C0B194A1946D
:101E4000B1088D809E80861A970A97FE03C09194F0
:101E5000819491088A149B045CF0902F812F0D814E
:101E60001E819D838E839C2D8D2D6B01692F782F74
:101E70000C151D055CF09D818E817E836D83692F1D
:101E8000782F902F812F8601C92ED82E1601201A67
:101E9000310A2B012D813E81421A530A57FE03C09D
:101EA000519441945108710137FE03C03FEFE31A8A
:101EB000F30AF594E7948D819E81861797075CF568
:101EC000A1E0B0E0BA83A983C016D1064CF1D301DA
:101ED000ED91FC910484F585E02D2B813C81A801D6
:101EE0006D817E818A149B041CF04D815E81B80156
:101EF000C3010995E418F508F7FE0AC02D813E815B
:101F000089819A81280F391F3E832D83E20CF31CAF
:101F10000F5F1F4FD9CF2FEF3FEF3A832983D4CFE5
:101F200026960FB6F894DEBF0FBECDBFDF91CF91DE
:101F30001F910F91FF90EF90DF90CF90BF90AF90E7
:101F40009F908F907F906F905F904F903F902F90D9
:101F50000895EF92FF920F931F93CF93DF93EC01BD
:101F6000EC80FD806E157F050CF070C057FF04C03B
:101F7000240F351F50E040E08E819F81FA01E20F6F
:101F8000F31F8E179F071CF49C01241B350B1216A0
:101F900013060CF05BC0922F842F8695869586954C
:101FA0008E9DD0018F9DB00D11246A0F7B1FAF8DC8
:101FB000B8A1A60FB71F477049F188E0841B482FCE
:101FC000682F70E0FB01E653FF4FE491281708F0FB
:101FD00063C0621B71092FEF30E002C03595279571
:101FE0006A95E2F7E2230130110539F0B0F10230D1
:101FF000110561F58C91E82702C08C91E82BEC93D8
:10200000941720F12C813D81A20FB31FE92FE41B0F
:10201000E83078F00230110521F58E2F9C919095D3
:102020009C932C813D81A20FB31F88508830B0F75C
:10203000E770EE2359F0F0E0EE53FF4FE4910130EA
:102040001105F9F010F10230110519F1DF91CF916E
:102050001F910F91FF90EF900895E0958C91E823E8
:10206000CECF81E00115110509F480E081959E2F06
:102070008C932C813D81A20FB31F98509830C0F7EC
:10208000D7CF8C91E82BEC93E1CFE0958C91E823AE
:10209000FACF8C91E827F7CF0130110509F4ADCFC5
:1020A000E0F20230110509F4A5CFAE0DBF1DAECF91
:1020B0000F931F93CF93DF9377FF04C0260F371F33
:1020C00070E060E0DC011496CD91DC91FB01E20F41
:1020D000F31FCE17DF071CF49E01261B370B1216C9
:1020E00013064CF5FA0157FD3796A3E0F595E795F1
:1020F000AA95E1F7EC9FD001ED9FB00DFC9FB00DCC
:1021000011246A0F7B1FDC015F96ED91FC91E60FB5
:10211000F71F4770552781E090E001C0880F4A956E
:10212000EAF7482F0130110559F0A8F02E0F3F1F94
:1021300002301105E1F0DF91CF911F910F910895C9
:102140002E0F3F1FE217F307B1F38191DF011197C3
:10215000842B8C93F7CF80952E0F3F1FE217F30748
:1021600051F39191DF01119798239C93F7CFE217D8
:10217000F30709F38191DF01119784278C93F7CF3F
:102180000F931F93FA01DC0156964C9156974230FB
:10219000E9F04330A1F1413061F514964D915C9125
:1021A000DA01AE1BBF0BFD01E21BF30B77FD0BC089
:1021B000DC0116964D915C916417750724F4AB0110
:1021C000BF010E9458101F910F91089514964D91D0
:1021D0005C91DA01A61BB70BBD0161507109DC01EE
:1021E00016964D915C91DA01AE1BBF0BFD01E21B0F
:1021F000F30B77FDE8CFAF010E94A90FE4CF16964D
:102200004D915C91DA01A61BB70BBD0161507109BC
:10221000CDCF0F931F93FA01DC0156964C91569740
:102220004230A9F0433091F1413019F514964D91A7
:102230005C91DA01AE1BBF0BFD013197F7FD04C0C5
:10224000AB01BF010E94A90F1F910F910895149631
:102250004D915C91DA01A61BB70BBD01DC0116960E
:102260004D915C91DA01AE1BBF0BFD013197621BF2
:10227000730BF7FDE9CFDC0116964D915C91E417E5
:10228000F50714F7AF010E945810DECF16964D9156
:102290005C91DA01A61BB70BBD01621B730BCECF9D
:1022A000FC0177FD64C080859185681779070CF083
:1022B0005EC057FD5CC082859385481759070CF0B6
:1022C00056C086898230B1F0833029F1813041F4E3
:1022D00084819581841B950BAB01BC016150710910
:1022E0002130310509F108F443C02230310509F4E9
:1022F00063C0089584819581DC01A61BB70BBD01E5
:102300006150710986819781DC01A41BB50BAD0179
:1023100041505109E5CF86819781861B970BBA0101
:10232000AC0141505109DCCFCA0157FD0796A3E02B
:1023300095958795AA95E1F7A481B5818A9F90012B
:102340008B9F300D9A9F300D1124620F731F078CE5
:10235000F0A1E02DE60FF71F4770552721E030E090
:1023600001C0220F4A95EAF78081822B808308956D
:10237000CA0157FD079633E0959587953A95E1F7A1
:10238000A481B5818A9F90018B9F300D9A9F300D5B
:102390001124620F731F078CF0A1E02DE60FF71FC9
:1023A0004770552781E090E001C0880F4A95EAF711
:1023B000809590818923DACFCA0157FD079623E0E3
:1023C000959587952A95E1F7A481B5818A9F90011B
:1023D0008B9F300D9A9F300D1124620F731F078C55
:1023E000F0A1E02DE60FF71F4770552721E030E000
:1023F00001C0220F4A95EAF780818227B7CF08955E
:102400008EBD00000DB407FEFDCF8EB50895EF928E
:10241000FF920F931F93CF93DF937C01C62F809180
:10242000740390917503009709F459C020917803C3
:1024300031E03093AD022093AC021092AB021092C7
:10244000AA02DC01ED91FC910190F081E02D60E0A9
:1024500009958701EE24E394F12CD1E0C1508091DD
:10246000740390917503CF3F91F1B0E2EB16F10444
:10247000D8F00E94CD08809174039091750320914B
:102480007803D093AD022093AC021092AB0210926D
:10249000AA02DC01ED91FC910190F081E02D60E059
:1024A0000995EE24E394F12C8091740390917503C7
:1024B000F8016491DC01ED91FC910190F081E02D37
:1024C0000995BFEFEB1AFB0A0F5F1F4FC7CFDF91D4
:1024D000CF911F910F91FF90EF900C94CD08E09158
:1024E0008403F0918503908180918A0380958923EC
:1024F00080838701C15008F438C0F801849120918D
:10250000720330917303232B29F00E9400120F5F96
:102510001F4FF0CF28E030E040E8E0918003F091D9
:10252000810390918803582F5423D9F05081952B23
:102530009083E0918203F09183039081509189030D
:10254000952B9083E0918203F091830350819091C9
:102550008903909595239083469521503109E9F69A
:10256000D6CF508190959523E3CFDF91CF911F91E6
:102570000F91FF90EF9008951F93CF93DF93EC019D
:102580008D8D9E8D009721F1162F29A131E030937A
:10259000AD022093AC021092AB021092AA02DC01B1
:1025A000ED91FC910190F081E02D60E009958D8D19
:1025B0009E8DDC01ED91FC910190F081E02D612F69
:1025C00009958D8D9E8DDF91CF911F910C94CD0833
:1025D000ADA5BEA59C918BA9809589238C938B8DED
:1025E0009C8D892B31F0862FDF91CF911F910C9418
:1025F000001228E030E080E8A9A5BAA599A9462FE5
:102600004823C1F04C91942B9C93ABA5BCA59C9105
:102610004AA9942B9C93ABA5BCA54C919AA99095E3
:1026200094239C9386952150310931F7DF91CF9106
:102630001F9108954C9190959423E6CF8CBD9DBD3C
:102640000895DF92EF92FF920F931F93CF93DF9342
:102650008091740390917503892B09F498C020919F
:102660008C0330918D0340918E0350918F0360E075
:1026700074E284EF90E00E941D222051310941094B
:10268000510956954795379527952093B80065E0F1
:102690008FED9AE00E94071260915B03615087E51D
:1026A00093E00E94BC1220915D0330915E03C9014A
:1026B000079697FD079633E0959587953A95E1F74C
:1026C00020915B0330915C03829F8001839F100DFA
:1026D000929F100D1124C0917603D09177038091C1
:1026E0007403909175030C0F1D1F009709F48FC0A0
:1026F0002091780331E03093AD022093AC02109228
:10270000AB021092AA02DC01ED91FC910190F081E4
:10271000E02D60E40995EE24E394F12CDD24D394BC
:1027200080917403909175030C171D0709F446C03E
:10273000B0E2EB16F104D8F00E94CD08809174034A
:102740009091750320917803D092AD022093AC0252
:102750001092AB021092AA02DC01ED91FC91019063
:10276000F081E02D60E40995EE24E394F12C809152
:102770007403909175036991DC01ED91FC910190D6
:10278000F081E02D0995BFEFEB1AFB0AC9CF8091CC
:10279000720390917303892B31F08091950390918E
:1027A00096030E941E13E0918603F09187039081A7
:1027B00080918B0380958923808369CF0E94CD0807
:1027C0008091740390917503892B09F461C0209165
:1027D000900330919103409192035091930360E0F4
:1027E00074E284EF90E00E941D22205131094109DA
:1027F000510956954795379527952093B800DF9155
:10280000CF911F910F91FF90EF90DF900895E0918D
:102810008403F0918503808190918A03892B8083C2
:102820000C171D0769F2899120917203309173038F
:10283000232B19F00E940012F3CF28E030E040E88B
:10284000E0918003F091810390918803582F5423E5
:10285000D9F05081952B9083E0918203F09183030E
:10286000908150918903952B9083E0918203F091A0
:102870008303508190918903909595239083469589
:1028800021503109E9F6CCCF508190959523E3CFC3
:10289000E0918603F0918703808190918B03892BCF
:1028A0008083ADCF1F93CF93DF93EC01162F8D8DD7
:1028B0009E8D892BB1F12DA93EA94FA958AD60E09D
:1028C00074E284EF90E00E941D22205131094109F9
:1028D000510956954795379527952093B80066EA94
:1028E000111167EACE010E94BC128D8D9E8D892B3D
:1028F00041F129AD3AAD4BAD5CAD60E074E284EFDF
:1029000090E00E941D22205131094109510956953C
:102910004795379527952093B800DF91CF911F9168
:1029200008958B8D9C8D892B21F08EAD9FAD0E94DB
:102930001E13EFA5F8A990818CA980958923808327
:10294000CECFEFA5F8A980819CA9892B8083E5CF04
:10295000089590E080E0089520915D0330915E033A
:10296000C901079697FD079623E0959587952A95C7
:10297000E1F720915B0330915C03829FA001839F6C
:10298000500D929F500D112470E060E0809176030D
:10299000909177030C946F230E946A23FB010190AE
:1029A0000020E9F73197AF01461B570BDC01ED9191
:1029B000FC910280F381E02D09948F929F92AF9257
:1029C000BF92EF92FF920F931F93CF93DF93CDB7F8
:1029D000DEB7A1970FB6F894DEBF0FBECDBF7C0166
:1029E000FA01CB0119A2223008F42AE08E010F5D12
:1029F0001F4F822E912CB12CA12CBF01A501940157
:102A00000E941D22F901CA016A300CF5605DD801EF
:102A10006E938D01232B242B252B79F790E080E0FA
:102A2000109721F0BD01C7010E94CE14A1960FB6E8
:102A3000F894DEBF0FBECDBFDF91CF911F910F91F4
:102A4000FF90EF90BF90AF909F908F900895695C3A
:102A5000DECF2F923F924F925F926F927F928F9232
:102A60009F92AF92BF92CF92DF92EF92FF921F930D
:102A7000CF93DF93EC016A017B01722EAB019601CB
:102A8000CB01B6010E94E32169E571E0811126C006
:102A900046015701E894B7F82FEF3FEF4FE75FE7A4
:102AA000C501B4010E94E32181110CC02FEF3FEF5B
:102AB0004FE75FE7C501B4010E94C21F6DE571E0F9
:102AC000181664F02FEF3FEF4FE75FE4C701B60140
:102AD0000E9421211816B4F461E671E0CE01DF9165
:102AE000CF911F91FF90EF90DF90CF90BF90AF906C
:102AF0009F908F907F906F905F904F903F902F901E
:102B00000C94CE142FEF3FEF4FE75FECC701B601F7
:102B10000E94C21F87FDE0CF20E030E0A901C7017D
:102B2000B6010E94C21F312C212C87FF0DC0E88105
:102B3000F9810190F081E02D6DE2CE0109951C0133
:102B4000F7FAF094F7F8F09410E060E070E080E0BD
:102B50009FE3711641F020E030E040E251E40E9432
:102B6000C71F1F5FF6CFA70196010E94561F2B01BA
:102B70003C010E9440204B015C012AE0BC01A40101
:102B8000CE010E94DD147C01E20CF31C1123E1F163
:102B9000C501B4010E946F209B01AC01C301B201C9
:102BA0000E94551F4B015C01E881F9810190F08181
:102BB000E02D6EE2CE010995E80EF91E115020F1CC
:102BC00020E030E040E251E4C501B4010E947621EA
:102BD0002B013C010E9440204B01B12CA12C2AE08A
:102BE000B501A401CE010E94DD14E80EF91EC50155
:102BF000B4010E946F209B01AC01C301B2010E948D
:102C0000551F4B015C01DACFC701DF91CF911F91B6
:102C1000FF90EF90DF90CF90BF90AF909F908F90FC
:102C20007F906F905F904F903F902F900895CF923C
:102C3000DF92EF92FF9265E671E08EEA92E00E94E9
:102C4000CE14C0909E02D0909F020D2C000CEE0876
:102C5000FF082AE0B701A601F7FE0DC06DE28EEA7B
:102C600092E00E94410644275527BA014C195D099C
:102C70006E097F092AE08EEA92E00E94DD1464E783
:102C800071E08EEA92E0FF90EF90DF90CF900C948D
:102C9000CE14CF9360E086E00E94000760E089E0F8
:102CA0000E94000710929D0210929F0210929E02B5
:102CB0000E94171667E771E08EEA92E00E94CE1438
:102CC00064E771E08EEA92E00E94CE1461E08AE04F
:102CD0000E94000761E08BE00E94000768E873E152
:102CE00080E090E00E94B00780910001883091F070
:102CF0008F3FC9F164EF71E080E090E00E94B0077F
:102D000088E00E942E0764EF71E080E090E0CF91B0
:102D10000C94B007E0EFF5E0C491C7FDEBCF61E0A4
:102D200088E00E945A07CC2309F48CC0C23009F015
:102D3000A0C08091B100887F83608093B10085EA54
:102D40008093B3008FEF9FEFDC0180938602909316
:102D50008702A0938802B0938902809170008260FC
:102D600080937000C7CF88E080930001E0EFF5E02A
:102D7000C491CF3F09F4BECFC13021F150F0C23031
:102D800009F43EC0C7FDB6CF61E088E00E945A0753
:102D9000CDCF14BC15BC84B5826084BD85B581607F
:102DA00085BDE3E3F6E0E491F0E0EE0FFF1FEF5D99
:102DB000F94F85919491E5E1F6E0E491E093C1014A
:102DC000C0E0ADCF10928000109281008091810010
:102DD0008860809381008091810081608093810070
:102DE000E3E3F6E0E491F0E0EE0FFF1FEF5DF94F53
:102DF00085919491E5E1F6E0E491E093C0018FCFF5
:102E00001092B0001092B1008091B0008260809367
:102E1000B0008091B10081608093B100E3E3F6E0FF
:102E2000E491F0E0EE0FFF1FEF5DF94F8591949173
:102E30009093840280938302E5E1F6E0E491E093CD
:102E400085026DCF85B5887F836085BD82E587BDAE
:102E50008FEF9FEFDC018093C6019093C701A09391
:102E6000C801B093C90180916E00826080936E00AA
:102E700041CFC130E9F480918100887F81608093E7
:102E8000810084ED94E190938900809388008FEF16
:102E90009FEFDC018093C2019093C301A093C40112
:102EA000B093C50180916F00826080936F0022CF44
:102EB000C23021F0C1111ECF84EDC9CF84ED40CFC7
:102EC00085ED8093BC0080910B0290910C02A09143
:102ED0000D02B0910E020796A11DB11D23E0B6951B
:102EE000A795979587952A95D1F72091BC0024FD49
:102EF00003C010925402089540910B0250910C02AD
:102F000060910D0270910E02452B462B472B69F301
:102F10000097A105B10541F025E32A95F1F70000DE
:102F20000197A109B109E1CF80910A020C94270809
:102F30001F920F920FB60F9211242F933F934F932E
:102F40005F936F937F938F939F93AF93BF93EF9311
:102F5000FF938091860290918702A0918802B091A0
:102F60008902892B8A2B8B2BD1F190918502E091DC
:102F70008302F09184028081892780838091860278
:102F800090918702A0918802B091890218161906C3
:102F90001A061B069CF48091860290918702A091EC
:102FA0008802B09189020197A109B1098093860234
:102FB00090938702A0938802B0938902FF91EF91CA
:102FC000BF91AF919F918F917F916F915F914F9141
:102FD0003F912F910F900FBE0F901F9018958091E9
:102FE00000010E942E07EACF1F920F920FB60F9298
:102FF00011242F933F934F935F936F937F938F93FE
:103000009F93AF93BF93EF93FF938EEA92E00E945A
:103010001F06FF91EF91BF91AF919F918F917F918B
:103020006F915F914F913F912F910F900FBE0F9035
:103030001F9018951F920F920FB60F9211242F9385
:103040008F939F93EF93FF93E091BE02F091BF02A5
:103050008081E091C402F091C50282FD1BC0908185
:103060008091C7028F5F8F732091C802821741F051
:10307000E091C702F0E0E255FD4F958F8093C702C3
:10308000FF91EF919F918F912F910F900FBE0F9015
:103090001F9018958081F4CF1F920F920FB60F9258
:1030A00011242F933F938F939F93AF93BF9380915E
:1030B0007B0290917C02A0917D02B0917E023091C2
:1030C0007A0223E0230F2D3758F50196A11DB11D7B
:1030D00020937A0280937B0290937C02A0937D02DE
:1030E000B0937E0280917F0290918002A091810234
:1030F000B09182020196A11DB11D80937F02909331
:103100008002A0938102B0938202BF91AF919F9100
:103110008F913F912F910F900FBE0F901F90189598
:1031200026E8230F0296A11DB11DD2CF1F920F9248
:103130000FB60F9211242F933F934F935F936F938A
:103140007F938F939F93AF93BF93EF93FF93809160
:10315000B900887F803609F44AC0F0F5883209F456
:10316000A7C018F5803109F49BC0B8F4882309F48E
:10317000F9C0883009F494C0FF91EF91BF91AF91ED
:103180009F918F917F916F915F914F913F912F917F
:103190000F900FBE0F901F901895883109F488C0CA
:1031A000803251F78093530214C0803409F49DC0DB
:1031B00040F48033B9F38833F9F68093530285ECF9
:1031C000B0C0803509F485C0883509F496C08834CC
:1031D00099F60E946017D0CF883909F48CC038F571
:1031E000883729F050F4883611F0803729F683E0CB
:1031F000809354021092520257C0883809F47BC061
:10320000803919F0803809F0B7CF809152028032AE
:1032100008F071C0E091520281E08E0F809352025B
:103220008091BB00F0E0EE5CFD4F80833DC0803BB1
:1032300039F0E0F4803A09F479C0883A09F09CCF7B
:1032400084E0809354021092310210923002E09197
:103250008D02F0918E0209958091300281110FC08C
:1032600081E0809330021092100209C0803C09F482
:10327000A6CF883C09F4A3CF883B09F07DCFE0912D
:10328000310281E08E0F80933102F0E0E05FFD4F6C
:1032900080818093BB00909131028091300229C0DF
:1032A000809179028093BB0085EC8093BC0064CF51
:1032B0009091780280917702981758F5E091780202
:1032C00081E08E0F80937802F0E0E95AFD4F808113
:1032D000E9CFE091780281E08E0F809378028091AF
:1032E000BB00F0E0E95AFD4F808390917802809115
:1032F00077029817C8F285E8D8CFE091780281E08C
:103300008E0F809378028091BB00F0E0E95AFD4F68
:1033100080838091560281115CCF81E080935502B9
:1033200084EA8093BC001092540226CF85EC8093EF
:10333000BC001092540280915202803230F4E0912D
:103340005202F0E0EE5CFD4F10826091520270E09C
:10335000E0918B02F0918C0282E392E00995109249
:1033600052020ACF1092530234CFEEEAF2E01382F7
:10337000128248EE53E060E070E044835583668338
:1033800077838DE091E09183808385EC90E0958751
:10339000848784EC90E09787868780EC90E0918B1F
:1033A000808B81EC90E0938B828B82EC90E0958B0C
:1033B000848B86EC90E0978B868B118E128E138E09
:1033C000148EABE4B3E013961C921E9212971496DF
:1033D0004D935D936D937C9317978FE191E01196D8
:1033E0009C938E93E7E5F3E01382128220E830E0AD
:1033F0003583248380E490E0978386833187208718
:1034000093878287168A158614861786168681E02A
:10341000858B848B2FEF3FEF338B228B318B208B6F
:10342000878B108E128E118E81E391E091838083C1
:10343000148E138EB68FA58F10A2178E8FEF84A3D4
:1034400085A386A387A380A780E89AE1A6E0B0E0E1
:1034500085AB96ABA7ABB0AF80EA96E8A1E0B0E051
:1034600081AF92AFA3AFB4AF80E586AF17AE08953A
:10347000789484B5826084BD84B5816084BD85B54F
:10348000826085BD85B5816085BD80916E0081605B
:1034900080936E0010928100809181008260809301
:1034A0008100809181008160809381008091800003
:1034B0008160809380008091B10084608093B1002E
:1034C0008091B00081608093B00080917A00846028
:1034D00080937A0080917A00826080937A00809154
:1034E0007A00816080937A0080917A00806880936E
:1034F0007A001092C10080E593ECA0E0B0E08093E8
:10350000910290939202A0939302B093940210922E
:103510009F0210929E0260E08EE00E945A0761E0D6
:103520008DE00E945A0761E088E00E945A0761E03E
:1035300089E00E945A0761E086E00E945A0760E035
:1035400082E00E945A0760E083E00E945A0760E030
:1035500084E00E945A07E091BE02F091BF0282E02F
:103560008083E091BA02F091BB021082E091BC022C
:10357000F091BD028FEC80831092C602E091C202EE
:10358000F091C30286E08083E091C002F091C10215
:10359000808180618083E091C002F091C1028081CE
:1035A00088608083E091C002F091C10280818068D0
:1035B0008083E091C002F091C10280818F7D808381
:1035C0008091760390917703892B11F10E94AC14BE
:1035D00020915D0330915E0380915B0390915C03C9
:1035E000213231050CF037C2B9016052710977FF01
:1035F00002C06F5F7F4F759567958357910997FD5F
:10360000019600E210E023E730E04FE356E036C2D7
:1036100020915D0330915E03C901079697FD0796DF
:10362000B3E095958795BA95E1F720915B033091CA
:103630005C03AC01429FC001439F900D529F900DCF
:1036400011240E9445229093770380937603892B5F
:1036500009F0BCCF0E94AC1481E080936B0380938F
:103660006C0381E090E090936A03809369039093E8
:1036700068038093670390E4392EC1E0D0E020E036
:10368000C22E20E0D22E82E00E94D706892BF1F4D0
:1036900080919E0290919F022C01092E000C6608D9
:1036A000770840919102509192026091930270913B
:1036B0009402441655066606770644F488519C4FDA
:1036C00090939F0280939E020E94171683E00E94AF
:1036D000D706892B69F480919E0290919F0218165B
:1036E000190634F4885E934090939F0280939E0263
:1036F00030927C0080917A00806480937A0080917F
:103700007A0086FDFCCF8091780060917900762F59
:10371000682F072E000C880B990B0E9471209B01CB
:10372000AC0160E070EC8FE794E40E94C71F20E0DA
:1037300030E040E85FE30E94551F20E030E44CE1B8
:1037400056E40E9476210E942E212B013C012CE69A
:103750003FEC48E554E30E947621A30192010E94C8
:103760007621A30192010E9476214B015C0126ED96
:1037700034E649E759E3C301B2010E9476212BECFC
:1037800038E444E85AE30E94561F9B01AC01C5018E
:10379000B4010E94561F9B01AC0160E070E080E81C
:1037A0009FE30E94C71F23E333E948E853E40E94E4
:1037B000551F9B01AC012093A6023093A7024093B2
:1037C000A8025093A9026091A2027091A302809175
:1037D000A4029091A5020E94C21F882309F442C04E
:1037E00062E871E08EEA92E00E94CE144091A2025B
:1037F0005091A3026091A4027091A50222E08EEA8A
:1038000092E00E94291564E771E08EEA92E00E943E
:10381000CE1466E971E08EEA92E00E94CE144091E7
:10382000A6025091A7026091A8027091A90222E01D
:103830008EEA92E00E94291564E771E08EEA92E038
:103840000E94CE148091A6029091A702A091A80296
:10385000B091A9028093A2029093A302A093A40224
:10386000B093A5024090A2025090A3026090A402DF
:103870007090A50210926403109263031092660385
:103880001092650310926A03109269031092680304
:10389000109267036BEA71E087E593E00E94CE1413
:1038A0004091950250919602609197027091980212
:1038B00022E087E593E00E9429151092640310929C
:1038C00063031092660310926503D0936A03C0935A
:1038D0006903D0936803C09367036BEA71E087E5DF
:1038E00093E00E94CE1422E0B301A20187E593E0A9
:1038F0000E9429154092950250929602609297027A
:10390000709298020E9421134090A2025090A3024C
:103910006090A4027090A50280919B0290919C02FD
:103920008038910554F00E94AC1410929C021092C1
:103930009B0210929A021092990220E030E040EE31
:1039400050E4C301B2010E94C71F9B01AC0160E0BB
:1039500070E080E792E40E94551F0E9439202B01FD
:1039600020919B0230919C024091010150910201F3
:103970006091990270919A02EE24E394F12C8201F5
:1039800087E593E00E94200D5092020140920101D0
:1039900080919B0290919C0290939A02809399024D
:1039A0000E94211380919B0290919C02019690931A
:1039B0009C0280939B0284E00E94D7069093A10210
:1039C0008093A0020E94171620E030E0A9016091C8
:1039D000A2027091A3028091A4029091A5020E947C
:1039E00021212091A0023091A10290919D021816F0
:1039F0000CF027C240919E0250919F0214161506AA
:103A00000CF01FC22115310509F01BC2911119C21A
:103A100061E086E00E94000761E089E00E94000703
:103A200081E080939D0261EB71E08EEA92E00E945A
:103A3000CE1464E771E08EEA92E00E94CE14C114C5
:103A4000D10409F420CE0E940B06882309F41BCE72
:103A50000E94000018CEB9016054710977FF02C0BE
:103A60006F5F7F4F759567958255910997FD019618
:103A700000E410E022E530E04FE158E095958795AD
:103A80000E949B0E82E08093790380917403909151
:103A90007503892B09F4DFC08CE3809378031092BF
:103AA000900210928F021092AB021092AA020E9412
:103AB00009088FE995E090938E0280938D0280EA49
:103AC00095E090938C0280938B0280917F0387FD19
:103AD0001EC061E00E945A0761E080917F030E944E
:103AE000000761E070E080E090E00E94B00760E0D5
:103AF00080917F030E9400076AE070E080E090E020
:103B00000E94B00761E080917F030E9400078091CE
:103B1000740390917503892B09F45CC120918C0387
:103B200030918D0340918E0350918F0360E074E2D9
:103B300084EF90E00E941D22205131094109510972
:103B400056954795379527952093B80064E089E00E
:103B500096E00E94071260915D03615087E593E053
:103B60000E94BC1264E085E096E00E9407128091FA
:103B7000790360E1813009F064E187E593E00E9418
:103B8000BC1264E081E096E00E9407128FE8809307
:103B9000940380915B0390915C038038910509F058
:103BA00032C180915D0390915E038034910509F0EC
:103BB0003AC180917903813009F023C18FE9809364
:103BC0009403C2E16AED87E593E00E94BC126C2F7A
:103BD00087E593E00E94BC1261E887E593E00E94CC
:103BE000BC126091940387E593E00E94BC1269EDDA
:103BF00087E593E00E94BC128091790362E28130F4
:103C000009F061EF87E593E00E94BC1266E08BEF5C
:103C100095E00E9407128091740390917503892B9F
:103C200009F405C1209190033091910340919203D2
:103C30005091930360E074E284EF90E00E941D22B3
:103C400020513109410951095695479537952795D6
:103C50002093B800FFCC61E080917D030E945A0759
:103C600061E080917E030E945A0780917D03082EB7
:103C7000000C990BFC01E55DF94FE491F0E0EE0FCB
:103C8000FF1FEF5DF94F2591349130938503209309
:103C90008403FC01E35FF94FE491E0938A03809190
:103CA0007E03082E000C990BFC01E55DF94FE491B1
:103CB000F0E0EE0FFF1FEF5DF94FA591B491B093C7
:103CC0008703A0938603FC01E35FF94FE491E0933F
:103CD0008B038C91E82BEC9380917203909173038A
:103CE000892B09F434C0CFB7F89480918A028111EE
:103CF00027C0E5E3F6E08491E7E1F6E09491E82F50
:103D0000F0E0EE0FFF1FEF50FA4FA591B491EC9148
:103D1000E92321F461E08AE00E94000761E08AE083
:103D20000E945A078CB580618CBD8CB580648CBDB7
:103D300061E08DE00E945A0761E08BE00E945A0723
:103D400080918A028F5F80938A02CFBFBECE61E0EE
:103D500080917B030E945A0761E080917C030E945E
:103D60005A0780917B03082E000C990BFC01E55D3E
:103D7000F94FE491F0E0EE0FFF1FEF5DF94F259151
:103D800034913093810320938003FC01E35FF94F6A
:103D9000E491E093880380917C03082E000C990B3A
:103DA000FC01E55DF94FE491F0E0EE0FFF1FEF5DE0
:103DB000F94FA591B491B0938303A0938203FC01C2
:103DC000E35FF94FE491E09389038C91E095E82358
:103DD000EC937BCE8091720390917303892B31F029
:103DE00080919503909196030E941E13E0918603A3
:103DF000F0918703908180918B0380958923808344
:103E0000A5CE8FECDCCE8036910569F480915D0300
:103E100090915E03409739F480917903813029F4C1
:103E200080E180939403C2E0CDCE8FEAFACFE09197
:103E30008603F0918703808190918B03892B808387
:103E400009CC2115310531F4992309F4F8CD0E94EC
:103E50004916F5CD992309F4F2CD2130310509F049
:103E6000EECD80919E0290919F02885E9340909348
:103E70009F0280939E020E94171680919E0290914D
:103E80009F02181619060CF4DACDE1CF81E391E018
:103E90009093580380935703809176039091770312
:103EA000009711F00C94E12208955058BB27AA27DF
:103EB0000E946D1F0C94E7200E94D92038F00E94C8
:103EC000E02020F039F49F3F19F426F40C94D6201A
:103ED0000EF4E095E7FB0C94D020E92F0E94F82027
:103EE00058F3BA17620773078407950720F079F42F
:103EF000A6F50C941A210EF4E0950B2EBA2FA02DE6
:103F00000B01B90190010C01CA01A0011124FF2786
:103F1000591B99F0593F50F4503E68F11A16F04081
:103F2000A22F232F342F4427585FF3CF4695379580
:103F30002795A795F0405395C9F77EF41F16BA0B45
:103F4000620B730B840BBAF09150A1F0FF0FBB1FF3
:103F5000661F771F881FC2F70EC0BA0F621F731F3C
:103F6000841F48F4879577956795B795F7959E3F99
:103F700008F0B0CF9395880F08F09927EE0F97952A
:103F8000879508950E94AC2008F481E008950E946E
:103F9000DB1F0C94E7200E94E02058F00E94D920FB
:103FA00040F029F45F3F29F00C94D02051110C947B
:103FB0001B210C94D6200E94F82068F39923B1F3BA
:103FC000552391F3951B550BBB27AA27621773073F
:103FD000840738F09F5F5F4F220F331F441FAA1FD3
:103FE000A9F335D00E2E3AF0E0E832D0915050408F
:103FF000E695001CCAF72BD0FE2F29D0660F771F3D
:10400000881FBB1F261737074807AB07B0E809F022
:10401000BB0B802DBF01FF2793585F4F3AF09E3FA7
:10402000510578F00C94D0200C941B215F3FE4F3F1
:10403000983ED4F3869577956795B795F7959F5FEA
:10404000C9F7880F911D9695879597F90895E1E036
:10405000660F771F881FBB1F621773078407BA0795
:1040600020F0621B730B840BBA0BEE1F88F7E095F0
:1040700008950E9440206894B1110C941B2108956A
:104080000E94002188F09F5798F0B92F9927B751C7
:10409000B0F0E1F0660F771F881F991F1AF0BA95EC
:1040A000C9F714C0B13091F00E941A21B1E008950F
:1040B0000C941A21672F782F8827B85F39F0B93F01
:1040C000CCF3869577956795B395D9F73EF490959F
:1040D0008095709561957F4F8F4F9F4F0895E8941D
:1040E00009C097FB3EF490958095709561957F4F40
:1040F0008F4F9F4F9923A9F0F92F96E9BB279395EE
:10410000F695879577956795B795F111F8CFFAF4FD
:10411000BB0F11F460FF1BC06F5F7F4F8F4F9F4F2E
:1041200016C0882311F096E911C0772321F09EE88C
:10413000872F762F05C0662371F096E8862F70E0F2
:1041400060E02AF09A95660F771F881FDAF7880FCC
:104150009695879597F90895990F0008550FAA0B22
:10416000E0E8FEEF16161706E807F907C0F012168A
:104170001306E407F50798F0621B730B840B950B8D
:1041800039F40A2661F0232B242B252B21F40895E2
:104190000A2609F4A140A6958FEF811D811D08957F
:1041A00097F99F6780E870E060E008959FEF80ECEA
:1041B000089500240A94161617061806090608958D
:1041C00000240A9412161306140605060895092EF3
:1041D0000394000C11F4882352F0BB0F40F4BF2B62
:1041E00011F460FF04C06F5F7F4F8F4F9F4F0895A2
:1041F00057FD9058440F551F59F05F3F71F0479598
:10420000880F97FB991F61F09F3F79F0879508957C
:10421000121613061406551FF2CF4695F1DF08C09B
:10422000161617061806991FF1CF869571056105B8
:1042300008940895E894BB2766277727CB0197F960
:1042400008950E94AC2008F48FEF089516F00C94A6
:10425000E8210C94D62068940C94D0200E94002170
:10426000A8F39923C1F3AEF3DF93CF931F930F937A
:10427000FF92C92FDD2788232AF02197660F771F29
:10428000881FDAF720E030E040E85FEB9FE38839F1
:1042900020F0803E38F021968F770E94561FE8E686
:1042A000F0E004C00E94561FE5E9F0E00E94F6210C
:1042B0008B01BE01EC01FB2E6F5771097595771FBD
:1042C000880B990B0E94712028E132E741E35FE3FC
:1042D0000E948921AF2D9801AE01FF900F911F918F
:1042E000CF91DF910E946D1F0C94E7200E948921DD
:1042F0000C94E7200E94D92038F00E94E02020F0A2
:10430000952311F00C94D0200C94D62011240C94F9
:104310001B210E94F82070F3959FC1F3950F50E088
:10432000551F629FF001729FBB27F00DB11D639F67
:10433000AA27F00DB11DAA1F649F6627B00DA11D0D
:10434000661F829F2227B00DA11D621F739FB00DB3
:10435000A11D621F839FA00D611D221F749F332723
:10436000A00D611D231F849F600D211D822F762FBC
:104370006A2F11249F5750409AF0F1F088234AF099
:10438000EE0FFF1FBB1F661F771F881F9150504005
:10439000A9F79E3F510580F00C94D0200C941B216E
:1043A0005F3FE4F3983ED4F3869577956795B7958C
:1043B000F795E7959F5FC1F7FE2B880F911D9695A6
:1043C000879597F908950E94AC20880B990B089562
:1043D0009F3F31F0915020F4879577956795B79579
:1043E000880F911D9695879597F90895DF93CF9340
:1043F0001F930F93FF92EF92DF927B018C016894E1
:1044000006C0DA2EEF010E948921FE01E894A591F1
:104410002591359145915591A6F3EF010E946D1FAD
:10442000FE019701A801DA9469F7DF90EF90FF9001
:104430000F911F91CF91DF910895A1E21A2EAA1B2F
:10444000BB1BFD010DC0AA1FBB1FEE1FFF1FA21744
:10445000B307E407F50720F0A21BB30BE40BF50B41
:10446000661F771F881F991F1A9469F760957095CA
:10447000809590959B01AC01BD01CF010895EE0F91
:10448000FF1F0590F491E02D09940F931F93CF9394
:10449000DF938230910510F482E090E0E09199037F
:1044A000F0919A0330E020E0B0E0A0E0309799F47A
:1044B0002115310509F44AC0281B390B2430310578
:1044C000D8F58A819B816115710589F1FB01938380
:1044D0008283FE0111C040815181028113814817FE
:1044E0005907E0F04817590799F4109761F01296B0
:1044F0000C93129713961C933296CF01DF91CF91B4
:104500001F910F9108950093990310939A03F4CF8C
:104510002115310551F04217530738F0A901DB018D
:104520009A01BD01DF01F801C1CFEF01F9CF9093EE
:104530009A0380939903CDCFFE01E20FF31F81937D
:1045400091932250310939832883D7CF2091970343
:1045500030919803232B41F42091050130910601FD
:104560003093980320939703209103013091040125
:104570002115310541F42DB73EB740910701509107
:104580000801241B350BE0919703F0919803E21783
:10459000F307A0F42E1B3F0B2817390778F0AC0166
:1045A0004E5F5F4F2417350748F04E0F5F1F509343
:1045B000980340939703819391939FCFF0E0E0E0BD
:1045C0009CCFCF93DF930097E9F0FC0132971382E1
:1045D0001282A0919903B0919A03ED0130E020E09E
:1045E0001097A1F420813181820F931F20919703AE
:1045F000309198032817390709F061C0F0939803A8
:10460000E0939703DF91CF910895EA01CE17DF077A
:10461000E8F54A815B819E0141155105B1F7E90139
:10462000FB83EA8349915991C40FD51FEC17FD070D
:1046300061F4808191810296840F951FE90199832D
:104640008883828193819B838A83F0E0E0E01296E5
:104650008D919C9113970097B9F52D913C911197ED
:10466000CD010296820F931F2091970330919803FA
:104670002817390739F6309751F510929A0310929E
:104680009903B0939803A0939703BCCFD383C283BD
:1046900040815181840F951FC817D90761F44E5F7F
:1046A0005F4F88819981480F591F518340838A81C8
:1046B0009B81938382832115310509F0B0CFF0935C
:1046C0009A03E09399039ECFFD01DC01C0CF1382D2
:1046D0001282D7CF81E090E0F8940C947623DC012D
:1046E00001C06D9341505040E0F7089515E0C3E7D5
:1046F000D5E004C0FE010E943F222196C437D107B5
:06470000C9F7F894FFCF99
:10470600FF3C0000009B038000000000004106A162
:1047160005CE058E06FF05DD05F105000000009EAD
:10472600087108A9149E056A085708480800000081
:1047360000EF0BA105A914A81450119E05940E6C48
:104746000E880E7C0EFC0E9E05B5095214C010098B
:1047560011B50D980D200DC10C6E616E00696E6667
:10476600006F76660054656D706F207365746164C2
:104776006F3A20000D0A00506172616E646F2E2E32
:104786002E0054656D706572617475726120617476
:1047960075616C3A200054656D706572617475724E
:1047A60061207365746164613A200074656D703AC6
:1047B600005374617274616E646F202E2E2E000099
:00000001FF
